{
  "contractName": "fileHashes",
  "abi": [
    {
      "constant": false,
      "inputs": [
        {
          "name": "_hash",
          "type": "bytes"
        },
        {
          "name": "_parent",
          "type": "bytes"
        }
      ],
      "name": "createSamples",
      "outputs": [],
      "payable": false,
      "stateMutability": "nonpayable",
      "type": "function"
    },
    {
      "constant": true,
      "inputs": [
        {
          "name": "i",
          "type": "uint256"
        }
      ],
      "name": "getSample",
      "outputs": [
        {
          "name": "",
          "type": "bytes"
        },
        {
          "name": "",
          "type": "bytes"
        }
      ],
      "payable": false,
      "stateMutability": "view",
      "type": "function"
    }
  ],
  "bytecode": "0x606060405260008055341561001357600080fd5b6105a7806100226000396000f30060606040526004361061004c576000357c0100000000000000000000000000000000000000000000000000000000900463ffffffff1680630c49ad4e1461005157806360d1507c146100f1575b600080fd5b341561005c57600080fd5b6100ef600480803590602001908201803590602001908080601f0160208091040260200160405190810160405280939291908181526020018383808284378201915050505050509190803590602001908201803590602001908080601f016020809104026020016040519081016040528093929190818152602001838380828437820191505050505050919050506101f9565b005b34156100fc57600080fd5b6101126004808035906020019091905050610278565b604051808060200180602001838103835285818151815260200191508051906020019080838360005b8381101561015657808201518184015260208101905061013b565b50505050905090810190601f1680156101835780820380516001836020036101000a031916815260200191505b50838103825284818151815260200191508051906020019080838360005b838110156101bc5780820151818401526020810190506101a1565b50505050905090810190601f1680156101e95780820380516001836020036101000a031916815260200191505b5094505050505060405180910390f35b6001805480600101828161020d9190610409565b916000526020600020906002020160006040805190810160405280868152602001858152509091909150600082015181600001908051906020019061025392919061043b565b50602082015181600101908051906020019061027092919061043b565b505050505050565b6102806104bb565b6102886104bb565b60018381548110151561029757fe5b90600052602060002090600202016000016001848154811015156102b757fe5b9060005260206000209060020201600101818054600181600116156101000203166002900480601f01602080910402602001604051908101604052809291908181526020018280546001816001161561010002031660029004801561035d5780601f106103325761010080835404028352916020019161035d565b820191906000526020600020905b81548152906001019060200180831161034057829003601f168201915b50505050509150808054600181600116156101000203166002900480601f0160208091040260200160405190810160405280929190818152602001828054600181600116156101000203166002900480156103f95780601f106103ce576101008083540402835291602001916103f9565b820191906000526020600020905b8154815290600101906020018083116103dc57829003601f168201915b5050505050905091509150915091565b8154818355818115116104365760020281600202836000526020600020918201910161043591906104cf565b5b505050565b828054600181600116156101000203166002900490600052602060002090601f016020900481019282601f1061047c57805160ff19168380011785556104aa565b828001600101855582156104aa579182015b828111156104a957825182559160200191906001019061048e565b5b5090506104b7919061050e565b5090565b602060405190810160405280600081525090565b61050b91905b8082111561050757600080820160006104ee9190610533565b6001820160006104fe9190610533565b506002016104d5565b5090565b90565b61053091905b8082111561052c576000816000905550600101610514565b5090565b90565b50805460018160011615610100020316600290046000825580601f106105595750610578565b601f016020900490600052602060002090810190610577919061050e565b5b505600a165627a7a7230582086fce2b0c6498f876d1bf352ecd17e10321ef907070561b5e7064a53d8bb90920029",
  "source": "pragma solidity ^0.4.18;\n\ncontract fileHashes {\n    uint idList=0;\n    struct Sample{\n        bytes fileHash;\n        bytes parentHash;\n    }\n    //create array of structs\n    Sample[] private samples;\n\n    function createSamples(bytes _hash, bytes _parent) public {\n        samples.push(Sample(_hash, _parent));\n    }\n\n    // function set(uint x, uint y) public {\n    //   fileId = y;\n    // }\n\n    // function get() public view returns (bytes) {\n    //   return fileHash[0];\n    // }\n\n    function getSample(uint i) public view returns (bytes, bytes){\n        //return properties of struct\n        return (samples[i].fileHash, samples[i].parentHash);\n    }\n\n}\n",
  "sourcePath": "/home/jeremu/resample-space/contracts/fileHashes.sol",
  "compiler": {
    "name": "solc",
    "version": "0.4.19+commit.c4cbbb05.Emscripten.clang"
  },
  "schemaVersion": "2.0.0",
  "updatedAt": "2018-04-17T08:43:02.165Z"
}