{
  "contractName": "SampleStorage",
  "abi": [
    {
      "constant": false,
      "inputs": [
        {
          "name": "_hash",
          "type": "bytes"
        },
        {
          "name": "_category",
          "type": "uint256"
        },
        {
          "name": "_color",
          "type": "bytes6"
        }
      ],
      "name": "createSample",
      "outputs": [],
      "payable": false,
      "stateMutability": "nonpayable",
      "type": "function"
    },
    {
      "constant": true,
      "inputs": [
        {
          "name": "i",
          "type": "uint256"
        }
      ],
      "name": "getSample",
      "outputs": [
        {
          "name": "",
          "type": "bytes"
        },
        {
          "name": "",
          "type": "uint256"
        },
        {
          "name": "",
          "type": "uint256"
        },
        {
          "name": "",
          "type": "bytes6"
        }
      ],
      "payable": false,
      "stateMutability": "view",
      "type": "function"
    },
    {
      "constant": true,
      "inputs": [],
      "name": "getSampleCount",
      "outputs": [
        {
          "name": "count",
          "type": "uint256"
        }
      ],
      "payable": false,
      "stateMutability": "view",
      "type": "function"
    }
  ],
  "bytecode": "0x60606040526001600055341561001457600080fd5b61069c806100236000396000f300606060405260043610610057576000357c0100000000000000000000000000000000000000000000000000000000900463ffffffff1680633479decd1461005c57806360d1507c146100855780637c40326614610170575b600080fd5b341561006757600080fd5b61006f6101fc565b6040518082815260200191505060405180910390f35b341561009057600080fd5b6100a66004808035906020019091905050610209565b60405180806020018581526020018481526020018379ffffffffffffffffffffffffffffffffffffffffffffffffffff191679ffffffffffffffffffffffffffffffffffffffffffffffffffff19168152602001828103825286818151815260200191508051906020019080838360005b83811015610132578082015181840152602081019050610117565b50505050905090810190601f16801561015f5780820380516001836020036101000a031916815260200191505b509550505050505060405180910390f35b341561017b57600080fd5b6101fa600480803590602001908201803590602001908080601f0160208091040260200160405190810160405280939291908181526020018383808284378201915050505050509190803590602001909190803579ffffffffffffffffffffffffffffffffffffffffffffffffffff191690602001909190505061036b565b005b6000600180549050905090565b6102116104be565b600080600060018581548110151561022557fe5b906000526020600020906004020160000160018681548110151561024557fe5b90600052602060002090600402016001015460018781548110151561026657fe5b90600052602060002090600402016002015460018881548110151561028757fe5b906000526020600020906004020160030160009054906101000a90047a01000000000000000000000000000000000000000000000000000002838054600181600116156101000203166002900480601f0160208091040260200160405190810160405280929190818152602001828054600181600116156101000203166002900480156103555780601f1061032a57610100808354040283529160200191610355565b820191906000526020600020905b81548152906001019060200180831161033857829003601f168201915b5050505050935093509350935093509193509193565b6001805480600101828161037f91906104d2565b9160005260206000209060040201600060a06040519081016040528087815260200160005481526020018681526020018579ffffffffffffffffffffffffffffffffffffffffffffffffffff191681526020013373ffffffffffffffffffffffffffffffffffffffff168152509091909150600082015181600001908051906020019061040d929190610504565b50602082015181600101556040820151816002015560608201518160030160006101000a81548165ffffffffffff02191690837a0100000000000000000000000000000000000000000000000000009004021790555060808201518160030160066101000a81548173ffffffffffffffffffffffffffffffffffffffff021916908373ffffffffffffffffffffffffffffffffffffffff160217905550505050600160005401600081905550505050565b602060405190810160405280600081525090565b8154818355818115116104ff576004028160040283600052602060002091820191016104fe9190610584565b5b505050565b828054600181600116156101000203166002900490600052602060002090601f016020900481019282601f1061054557805160ff1916838001178555610573565b82800160010185558215610573579182015b82811115610572578251825591602001919060010190610557565b5b5090506105809190610603565b5090565b61060091905b808211156105fc57600080820160006105a39190610628565b600182016000905560028201600090556003820160006101000a81549065ffffffffffff02191690556003820160066101000a81549073ffffffffffffffffffffffffffffffffffffffff02191690555060040161058a565b5090565b90565b61062591905b80821115610621576000816000905550600101610609565b5090565b90565b50805460018160011615610100020316600290046000825580601f1061064e575061066d565b601f01602090049060005260206000209081019061066c9190610603565b5b505600a165627a7a723058201a1f5321d80b93e45a51c42cf9bf09a04afee0897e3eb390e9e62a95346d48240029",
  "source": "pragma solidity ^0.4.18;\n\ncontract SampleStorage {\n    uint soundID=1;\n    struct Sample{\n        bytes fileHash;\n        uint hashID;\n        uint category;\n        bytes6 color;\n        address uploader;\n    }\n    //create array of structs\n    Sample[] private samples;\n\n    function createSample(bytes _hash, uint _category, bytes6 _color) public {\n        samples.push(Sample(_hash, soundID, _category, _color, msg.sender));\n        soundID=soundID+1;\n    }\n\n    function getSample(uint i) public view returns (bytes, uint, uint, bytes6){\n        //return properties of struct\n        return (samples[i].fileHash, samples[i].hashID, samples[i].category, samples[i].color);\n    }\n\n    function getSampleCount() public view returns(uint count) {\n        return samples.length;\n    }\n\n}\n",
  "sourcePath": "/home/jeremu/resample-space/contracts/SampleStorage.sol",
  "compiler": {
    "name": "solc",
    "version": "0.4.19+commit.c4cbbb05.Emscripten.clang"
  },
  "schemaVersion": "2.0.0",
  "updatedAt": "2018-04-27T14:45:32.405Z"
}