{
  "contractName": "SampleStorage",
  "abi": [
    {
      "constant": false,
      "inputs": [
        {
          "name": "_hash",
          "type": "bytes"
        },
        {
          "name": "_category",
          "type": "uint256"
        },
        {
          "name": "_color",
          "type": "bytes3"
        }
      ],
      "name": "createSample",
      "outputs": [],
      "payable": false,
      "stateMutability": "nonpayable",
      "type": "function"
    },
    {
      "constant": true,
      "inputs": [
        {
          "name": "i",
          "type": "uint256"
        }
      ],
      "name": "getSample",
      "outputs": [
        {
          "name": "",
          "type": "bytes"
        },
        {
          "name": "",
          "type": "uint256"
        },
        {
          "name": "",
          "type": "uint256"
        },
        {
          "name": "",
          "type": "bytes3"
        }
      ],
      "payable": false,
      "stateMutability": "view",
      "type": "function"
    },
    {
      "constant": true,
      "inputs": [],
      "name": "getSampleCount",
      "outputs": [
        {
          "name": "count",
          "type": "uint256"
        }
      ],
      "payable": false,
      "stateMutability": "view",
      "type": "function"
    }
  ],
  "bytecode": "0x60606040526001600055341561001457600080fd5b6106a8806100236000396000f300606060405260043610610057576000357c0100000000000000000000000000000000000000000000000000000000900463ffffffff1680633479decd1461005c57806360d1507c14610085578063e2eaf0b314610176575b600080fd5b341561006757600080fd5b61006f610205565b6040518082815260200191505060405180910390f35b341561009057600080fd5b6100a66004808035906020019091905050610212565b6040518080602001858152602001848152602001837cffffffffffffffffffffffffffffffffffffffffffffffffffffffffff19167cffffffffffffffffffffffffffffffffffffffffffffffffffffffffff19168152602001828103825286818151815260200191508051906020019080838360005b8381101561013857808201518184015260208101905061011d565b50505050905090810190601f1680156101655780820380516001836020036101000a031916815260200191505b509550505050505060405180910390f35b341561018157600080fd5b610203600480803590602001908201803590602001908080601f016020809104026020016040519081016040528093929190818152602001838380828437820191505050505050919080359060200190919080357cffffffffffffffffffffffffffffffffffffffffffffffffffffffffff1916906020019091905050610377565b005b6000600180549050905090565b61021a6104cd565b600080600060018581548110151561022e57fe5b906000526020600020906004020160000160018681548110151561024e57fe5b90600052602060002090600402016001015460018781548110151561026f57fe5b90600052602060002090600402016002015460018881548110151561029057fe5b906000526020600020906004020160030160009054906101000a90047d01000000000000000000000000000000000000000000000000000000000002838054600181600116156101000203166002900480601f0160208091040260200160405190810160405280929190818152602001828054600181600116156101000203166002900480156103615780601f1061033657610100808354040283529160200191610361565b820191906000526020600020905b81548152906001019060200180831161034457829003601f168201915b5050505050935093509350935093509193509193565b6001805480600101828161038b91906104e1565b9160005260206000209060040201600060a0604051908101604052808781526020016000548152602001868152602001857cffffffffffffffffffffffffffffffffffffffffffffffffffffffffff191681526020013373ffffffffffffffffffffffffffffffffffffffff168152509091909150600082015181600001908051906020019061041c929190610513565b50602082015181600101556040820151816002015560608201518160030160006101000a81548162ffffff02191690837d0100000000000000000000000000000000000000000000000000000000009004021790555060808201518160030160036101000a81548173ffffffffffffffffffffffffffffffffffffffff021916908373ffffffffffffffffffffffffffffffffffffffff160217905550505050600160005401600081905550505050565b602060405190810160405280600081525090565b81548183558181151161050e5760040281600402836000526020600020918201910161050d9190610593565b5b505050565b828054600181600116156101000203166002900490600052602060002090601f016020900481019282601f1061055457805160ff1916838001178555610582565b82800160010185558215610582579182015b82811115610581578251825591602001919060010190610566565b5b50905061058f919061060f565b5090565b61060c91905b8082111561060857600080820160006105b29190610634565b600182016000905560028201600090556003820160006101000a81549062ffffff02191690556003820160036101000a81549073ffffffffffffffffffffffffffffffffffffffff021916905550600401610599565b5090565b90565b61063191905b8082111561062d576000816000905550600101610615565b5090565b90565b50805460018160011615610100020316600290046000825580601f1061065a5750610679565b601f016020900490600052602060002090810190610678919061060f565b5b505600a165627a7a7230582039765b7ef79c0855834c49ef01c14e5f636d2e302a352f1c2d9177cff16391dc0029",
  "source": "pragma solidity ^0.4.18;\n\ncontract SampleStorage {\n    uint soundID=1;\n    struct Sample{\n        bytes fileHash;\n        uint hashID;\n        uint category;\n        bytes3 color;\n        address uploader;\n    }\n    //create array of structs\n    Sample[] private samples;\n\n    function createSample(bytes _hash, uint _category, bytes3 _color) public {\n        samples.push(Sample(_hash, soundID, _category, _color, msg.sender));\n        soundID=soundID+1;\n    }\n\n    function getSample(uint i) public view returns (bytes, uint, uint, bytes3){\n        //return properties of struct\n        return (samples[i].fileHash, samples[i].hashID, samples[i].category, samples[i].color);\n    }\n\n    function getSampleCount() public view returns(uint count) {\n        return samples.length;\n    }\n\n}\n",
  "sourcePath": "/home/jeremu/resample-space/contracts/SampleStorage.sol",
  "compiler": {
    "name": "solc",
    "version": "0.4.19+commit.c4cbbb05.Emscripten.clang"
  },
  "schemaVersion": "2.0.0",
  "updatedAt": "2018-04-26T16:36:55.122Z"
}