{
  "contractName": "SampleStorage",
  "abi": [
    {
      "constant": false,
      "inputs": [
        {
          "name": "_hash",
          "type": "bytes"
        },
        {
          "name": "_color",
          "type": "bytes6"
        }
      ],
      "name": "createSample",
      "outputs": [],
      "payable": false,
      "stateMutability": "nonpayable",
      "type": "function"
    },
    {
      "constant": true,
      "inputs": [
        {
          "name": "i",
          "type": "uint256"
        }
      ],
      "name": "getSample",
      "outputs": [
        {
          "name": "",
          "type": "bytes"
        },
        {
          "name": "",
          "type": "uint256"
        },
        {
          "name": "",
          "type": "bytes6"
        },
        {
          "name": "",
          "type": "address"
        }
      ],
      "payable": false,
      "stateMutability": "view",
      "type": "function"
    },
    {
      "constant": true,
      "inputs": [],
      "name": "getSampleCount",
      "outputs": [
        {
          "name": "count",
          "type": "uint256"
        }
      ],
      "payable": false,
      "stateMutability": "view",
      "type": "function"
    }
  ],
  "bytecode": "0x60606040526001600055341561001457600080fd5b6106c6806100236000396000f300606060405260043610610057576000357c0100000000000000000000000000000000000000000000000000000000900463ffffffff16806305d1408e1461005c5780633479decd146100df57806360d1507c14610108575b600080fd5b341561006757600080fd5b6100dd600480803590602001908201803590602001908080601f0160208091040260200160405190810160405280939291908181526020018383808284378201915050505050509190803579ffffffffffffffffffffffffffffffffffffffffffffffffffff191690602001909190505061021f565b005b34156100ea57600080fd5b6100f2610361565b6040518082815260200191505060405180910390f35b341561011357600080fd5b610129600480803590602001909190505061036e565b60405180806020018581526020018479ffffffffffffffffffffffffffffffffffffffffffffffffffff191679ffffffffffffffffffffffffffffffffffffffffffffffffffff191681526020018373ffffffffffffffffffffffffffffffffffffffff1673ffffffffffffffffffffffffffffffffffffffff168152602001828103825286818151815260200191508051906020019080838360005b838110156101e15780820151818401526020810190506101c6565b50505050905090810190601f16801561020e5780820380516001836020036101000a031916815260200191505b509550505050505060405180910390f35b6001805480600101828161023391906104f0565b9160005260206000209060030201600060806040519081016040528086815260200160005481526020018579ffffffffffffffffffffffffffffffffffffffffffffffffffff191681526020013373ffffffffffffffffffffffffffffffffffffffff16815250909190915060008201518160000190805190602001906102bb929190610522565b506020820151816001015560408201518160020160006101000a81548165ffffffffffff02191690837a0100000000000000000000000000000000000000000000000000009004021790555060608201518160020160066101000a81548173ffffffffffffffffffffffffffffffffffffffff021916908373ffffffffffffffffffffffffffffffffffffffff1602179055505050506001600054016000819055505050565b6000600180549050905090565b6103766105a2565b600080600060018581548110151561038a57fe5b90600052602060002090600302016000016001868154811015156103aa57fe5b9060005260206000209060030201600101546001878154811015156103cb57fe5b906000526020600020906003020160020160009054906101000a90047a0100000000000000000000000000000000000000000000000000000260018881548110151561041357fe5b906000526020600020906003020160020160069054906101000a900473ffffffffffffffffffffffffffffffffffffffff16838054600181600116156101000203166002900480601f0160208091040260200160405190810160405280929190818152602001828054600181600116156101000203166002900480156104da5780601f106104af576101008083540402835291602001916104da565b820191906000526020600020905b8154815290600101906020018083116104bd57829003601f168201915b5050505050935093509350935093509193509193565b81548183558181151161051d5760030281600302836000526020600020918201910161051c91906105b6565b5b505050565b828054600181600116156101000203166002900490600052602060002090601f016020900481019282601f1061056357805160ff1916838001178555610591565b82800160010185558215610591579182015b82811115610590578251825591602001919060010190610575565b5b50905061059e919061062d565b5090565b602060405190810160405280600081525090565b61062a91905b8082111561062657600080820160006105d59190610652565b60018201600090556002820160006101000a81549065ffffffffffff02191690556002820160066101000a81549073ffffffffffffffffffffffffffffffffffffffff0219169055506003016105bc565b5090565b90565b61064f91905b8082111561064b576000816000905550600101610633565b5090565b90565b50805460018160011615610100020316600290046000825580601f106106785750610697565b601f016020900490600052602060002090810190610696919061062d565b5b505600a165627a7a72305820b5f77e8a0d483ae9d41f9aadb276bfc4bef771702ccc223591eebbafa4c53cc40029",
  "source": "pragma solidity ^0.4.18;\n\ncontract SampleStorage {\n    uint soundID=1;\n    struct Sample{\n        bytes fileHash;\n        uint hashID;\n        bytes6 color;\n        address uploader;\n    }\n    //create array of structs\n    Sample[] private samples;\n\n    function createSample(bytes _hash, bytes6 _color) public {\n        samples.push(Sample(_hash, soundID, _color, msg.sender));\n        soundID=soundID+1;\n    }\n\n    function getSample(uint i) public view returns (bytes, uint, bytes6, address){\n        //return properties of struct\n        return (samples[i].fileHash, samples[i].hashID, samples[i].color, samples[i].uploader);\n    }\n\n    function getSampleCount() public view returns(uint count) {\n        return samples.length;\n    }\n}\n",
  "sourcePath": "/home/jeremu/color_consensus/contracts/SampleStorage.sol",
  "compiler": {
    "name": "solc",
    "version": "0.4.19+commit.c4cbbb05.Emscripten.clang"
  },
  "schemaVersion": "2.0.0",
  "updatedAt": "2018-05-15T10:24:35.039Z"
}