{
  "contractName": "SampleStorage",
  "abi": [
    {
      "constant": false,
      "inputs": [
        {
          "name": "_hash",
          "type": "bytes"
        },
        {
          "name": "_parent",
          "type": "uint256"
        }
      ],
      "name": "createSample",
      "outputs": [],
      "payable": false,
      "stateMutability": "nonpayable",
      "type": "function"
    },
    {
      "constant": true,
      "inputs": [
        {
          "name": "i",
          "type": "uint256"
        }
      ],
      "name": "getSample",
      "outputs": [
        {
          "name": "",
          "type": "bytes"
        },
        {
          "name": "",
          "type": "uint256"
        },
        {
          "name": "",
          "type": "uint256"
        }
      ],
      "payable": false,
      "stateMutability": "view",
      "type": "function"
    }
  ],
  "bytecode": "0x606060405260008055341561001357600080fd5b6104a0806100226000396000f30060606040526004361061004c576000357c0100000000000000000000000000000000000000000000000000000000900463ffffffff16806360d1507c14610051578063a85f9d9a146100fb575b600080fd5b341561005c57600080fd5b6100726004808035906020019091905050610161565b6040518080602001848152602001838152602001828103825285818151815260200191508051906020019080838360005b838110156100be5780820151818401526020810190506100a3565b50505050905090810190601f1680156100eb5780820380516001836020036101000a031916815260200191505b5094505050505060405180910390f35b341561010657600080fd5b61015f600480803590602001908201803590602001908080601f01602080910402602001604051908101604052809392919081815260200183838082843782019150505050505091908035906020019091905050610277565b005b610169610302565b60008060018481548110151561017b57fe5b906000526020600020906003020160000160018581548110151561019b57fe5b9060005260206000209060030201600101546001868154811015156101bc57fe5b906000526020600020906003020160020154828054600181600116156101000203166002900480601f0160208091040260200160405190810160405280929190818152602001828054600181600116156101000203166002900480156102635780601f1061023857610100808354040283529160200191610263565b820191906000526020600020905b81548152906001019060200180831161024657829003601f168201915b505050505092509250925092509193909250565b6001805480600101828161028b9190610316565b91600052602060002090600302016000606060405190810160405280868152602001600054815260200185815250909190915060008201518160000190805190602001906102da929190610348565b5060208201518160010155604082015181600201555050506001600054016000819055505050565b602060405190810160405280600081525090565b8154818355818115116103435760030281600302836000526020600020918201910161034291906103c8565b5b505050565b828054600181600116156101000203166002900490600052602060002090601f016020900481019282601f1061038957805160ff19168380011785556103b7565b828001600101855582156103b7579182015b828111156103b657825182559160200191906001019061039b565b5b5090506103c49190610407565b5090565b61040491905b8082111561040057600080820160006103e7919061042c565b60018201600090556002820160009055506003016103ce565b5090565b90565b61042991905b8082111561042557600081600090555060010161040d565b5090565b90565b50805460018160011615610100020316600290046000825580601f106104525750610471565b601f0160209004906000526020600020908101906104709190610407565b5b505600a165627a7a723058200102f60a691271630cafa30a55d932e8a8f13e20575fd7c62a747936c480def80029",
  "source": "pragma solidity ^0.4.18;\n\ncontract SampleStorage {\n    uint soundID=0;\n    struct Sample{\n        bytes fileHash;\n        uint hashID;\n        uint parentID;\n    }\n    //create array of structs\n    Sample[] private samples;\n\n    function createSample(bytes _hash, uint _parent) public {\n        samples.push(Sample(_hash, soundID, _parent));\n        soundID=soundID+1;\n    }\n\n    function getSample(uint i) public view returns (bytes, uint, uint){\n        //return properties of struct\n        return (samples[i].fileHash, samples[i].hashID, samples[i].parentID);\n    }\n\n}\n",
  "sourcePath": "/home/jeremu/resample-space/contracts/SampleStorage.sol",
  "compiler": {
    "name": "solc",
    "version": "0.4.19+commit.c4cbbb05.Emscripten.clang"
  },
  "schemaVersion": "2.0.0",
  "updatedAt": "2018-04-18T11:21:44.254Z"
}