{
  "contractName": "SampleStorage",
  "abi": [
    {
      "constant": false,
      "inputs": [
        {
          "name": "_hash",
          "type": "bytes"
        },
        {
          "name": "_parent",
          "type": "uint256"
        }
      ],
      "name": "createSample",
      "outputs": [],
      "payable": false,
      "stateMutability": "nonpayable",
      "type": "function"
    },
    {
      "constant": true,
      "inputs": [
        {
          "name": "i",
          "type": "uint256"
        }
      ],
      "name": "getSample",
      "outputs": [
        {
          "name": "",
          "type": "bytes"
        },
        {
          "name": "",
          "type": "uint256"
        },
        {
          "name": "",
          "type": "uint256"
        }
      ],
      "payable": false,
      "stateMutability": "view",
      "type": "function"
    },
    {
      "constant": true,
      "inputs": [],
      "name": "getSampleCount",
      "outputs": [
        {
          "name": "count",
          "type": "uint256"
        }
      ],
      "payable": false,
      "stateMutability": "view",
      "type": "function"
    }
  ],
  "bytecode": "0x606060405260008055341561001357600080fd5b6104e1806100226000396000f300606060405260043610610057576000357c0100000000000000000000000000000000000000000000000000000000900463ffffffff1680633479decd1461005c57806360d1507c14610085578063a85f9d9a1461012f575b600080fd5b341561006757600080fd5b61006f610195565b6040518082815260200191505060405180910390f35b341561009057600080fd5b6100a660048080359060200190919050506101a2565b6040518080602001848152602001838152602001828103825285818151815260200191508051906020019080838360005b838110156100f25780820151818401526020810190506100d7565b50505050905090810190601f16801561011f5780820380516001836020036101000a031916815260200191505b5094505050505060405180910390f35b341561013a57600080fd5b610193600480803590602001908201803590602001908080601f016020809104026020016040519081016040528093929190818152602001838380828437820191505050505050919080359060200190919050506102b8565b005b6000600180549050905090565b6101aa610343565b6000806001848154811015156101bc57fe5b90600052602060002090600302016000016001858154811015156101dc57fe5b9060005260206000209060030201600101546001868154811015156101fd57fe5b906000526020600020906003020160020154828054600181600116156101000203166002900480601f0160208091040260200160405190810160405280929190818152602001828054600181600116156101000203166002900480156102a45780601f10610279576101008083540402835291602001916102a4565b820191906000526020600020905b81548152906001019060200180831161028757829003601f168201915b505050505092509250925092509193909250565b600180548060010182816102cc9190610357565b916000526020600020906003020160006060604051908101604052808681526020016000548152602001858152509091909150600082015181600001908051906020019061031b929190610389565b5060208201518160010155604082015181600201555050506001600054016000819055505050565b602060405190810160405280600081525090565b815481835581811511610384576003028160030283600052602060002091820191016103839190610409565b5b505050565b828054600181600116156101000203166002900490600052602060002090601f016020900481019282601f106103ca57805160ff19168380011785556103f8565b828001600101855582156103f8579182015b828111156103f75782518255916020019190600101906103dc565b5b5090506104059190610448565b5090565b61044591905b808211156104415760008082016000610428919061046d565b600182016000905560028201600090555060030161040f565b5090565b90565b61046a91905b8082111561046657600081600090555060010161044e565b5090565b90565b50805460018160011615610100020316600290046000825580601f1061049357506104b2565b601f0160209004906000526020600020908101906104b19190610448565b5b505600a165627a7a723058200ff5224720fcb8a6cf73e41067ff1022188340b8aa761ecabeb6ac1f8f4fba770029",
  "source": "pragma solidity ^0.4.18;\n\ncontract SampleStorage {\n    uint soundID=0;\n    struct Sample{\n        bytes fileHash;\n        uint hashID;\n        uint parentID;\n    }\n    //create array of structs\n    Sample[] private samples;\n\n    function createSample(bytes _hash, uint _parent) public {\n        samples.push(Sample(_hash, soundID, _parent));\n        soundID=soundID+1;\n    }\n\n    function getSample(uint i) public view returns (bytes, uint, uint){\n        //return properties of struct\n        return (samples[i].fileHash, samples[i].hashID, samples[i].parentID);\n    }\n\n    function getSampleCount() public view returns(uint count) {\n        return samples.length;\n    }\n\n}\n",
  "sourcePath": "/home/jeremu/resample-space/contracts/SampleStorage.sol",
  "compiler": {
    "name": "solc",
    "version": "0.4.19+commit.c4cbbb05.Emscripten.clang"
  },
  "schemaVersion": "2.0.0",
  "updatedAt": "2018-04-20T14:38:14.681Z"
}