{
  "contractName": "SampleStorage",
  "abi": [
    {
      "constant": false,
      "inputs": [
        {
          "name": "_hash",
          "type": "bytes"
        },
        {
          "name": "_color",
          "type": "bytes6"
        }
      ],
      "name": "createSample",
      "outputs": [],
      "payable": false,
      "stateMutability": "nonpayable",
      "type": "function"
    },
    {
      "constant": true,
      "inputs": [
        {
          "name": "i",
          "type": "uint256"
        }
      ],
      "name": "getSample",
      "outputs": [
        {
          "name": "",
          "type": "bytes"
        },
        {
          "name": "",
          "type": "uint256"
        },
        {
          "name": "",
          "type": "bytes6"
        }
      ],
      "payable": false,
      "stateMutability": "view",
      "type": "function"
    },
    {
      "constant": true,
      "inputs": [],
      "name": "getSampleCount",
      "outputs": [
        {
          "name": "count",
          "type": "uint256"
        }
      ],
      "payable": false,
      "stateMutability": "view",
      "type": "function"
    }
  ],
  "bytecode": "0x60606040526001600055341561001457600080fd5b61064e806100236000396000f300606060405260043610610057576000357c0100000000000000000000000000000000000000000000000000000000900463ffffffff16806305d1408e1461005c5780633479decd146100df57806360d1507c14610108575b600080fd5b341561006757600080fd5b6100dd600480803590602001908201803590602001908080601f0160208091040260200160405190810160405280939291908181526020018383808284378201915050505050509190803579ffffffffffffffffffffffffffffffffffffffffffffffffffff19169060200190919050506101ec565b005b34156100ea57600080fd5b6100f261032e565b6040518082815260200191505060405180910390f35b341561011357600080fd5b610129600480803590602001909190505061033b565b60405180806020018481526020018379ffffffffffffffffffffffffffffffffffffffffffffffffffff191679ffffffffffffffffffffffffffffffffffffffffffffffffffff19168152602001828103825285818151815260200191508051906020019080838360005b838110156101af578082015181840152602081019050610194565b50505050905090810190601f1680156101dc5780820380516001836020036101000a031916815260200191505b5094505050505060405180910390f35b600180548060010182816102009190610478565b9160005260206000209060030201600060806040519081016040528086815260200160005481526020018579ffffffffffffffffffffffffffffffffffffffffffffffffffff191681526020013373ffffffffffffffffffffffffffffffffffffffff16815250909190915060008201518160000190805190602001906102889291906104aa565b506020820151816001015560408201518160020160006101000a81548165ffffffffffff02191690837a0100000000000000000000000000000000000000000000000000009004021790555060608201518160020160066101000a81548173ffffffffffffffffffffffffffffffffffffffff021916908373ffffffffffffffffffffffffffffffffffffffff1602179055505050506001600054016000819055505050565b6000600180549050905090565b61034361052a565b60008060018481548110151561035557fe5b906000526020600020906003020160000160018581548110151561037557fe5b90600052602060002090600302016001015460018681548110151561039657fe5b906000526020600020906003020160020160009054906101000a90047a01000000000000000000000000000000000000000000000000000002828054600181600116156101000203166002900480601f0160208091040260200160405190810160405280929190818152602001828054600181600116156101000203166002900480156104645780601f1061043957610100808354040283529160200191610464565b820191906000526020600020905b81548152906001019060200180831161044757829003601f168201915b505050505092509250925092509193909250565b8154818355818115116104a5576003028160030283600052602060002091820191016104a4919061053e565b5b505050565b828054600181600116156101000203166002900490600052602060002090601f016020900481019282601f106104eb57805160ff1916838001178555610519565b82800160010185558215610519579182015b828111156105185782518255916020019190600101906104fd565b5b50905061052691906105b5565b5090565b602060405190810160405280600081525090565b6105b291905b808211156105ae576000808201600061055d91906105da565b60018201600090556002820160006101000a81549065ffffffffffff02191690556002820160066101000a81549073ffffffffffffffffffffffffffffffffffffffff021916905550600301610544565b5090565b90565b6105d791905b808211156105d35760008160009055506001016105bb565b5090565b90565b50805460018160011615610100020316600290046000825580601f10610600575061061f565b601f01602090049060005260206000209081019061061e91906105b5565b5b505600a165627a7a723058205f669aa001c5640fc38dc362b8f6c3a275703511e4be635b408c2a587737ceee0029",
  "source": "pragma solidity ^0.4.18;\n\ncontract SampleStorage {\n    uint soundID=1;\n    struct Sample{\n        bytes fileHash;\n        uint hashID;\n        bytes6 color;\n        address uploader;\n    }\n    //create array of structs\n    Sample[] private samples;\n\n    function createSample(bytes _hash, bytes6 _color) public {\n        samples.push(Sample(_hash, soundID, _color, msg.sender));\n        soundID=soundID+1;\n    }\n\n    function getSample(uint i) public view returns (bytes, uint, bytes6){\n        //return properties of struct\n        return (samples[i].fileHash, samples[i].hashID, samples[i].color);\n    }\n\n    function getSampleCount() public view returns(uint count) {\n        return samples.length;\n    }\n\n}\n",
  "sourcePath": "/home/jeremu/resample-space/contracts/SampleStorage.sol",
  "compiler": {
    "name": "solc",
    "version": "0.4.19+commit.c4cbbb05.Emscripten.clang"
  },
  "schemaVersion": "2.0.0",
  "updatedAt": "2018-04-28T11:57:57.591Z"
}